S01700004461736853637265656E46696E616C2E7372656343
S1130000702600203501000031010000310100009C
S113001000000000000000000000000000000000DC
S1130020000000000000000000000000310100009A
S11300300000000000000000310100003101000058
S11300403101000031010000151E000031010000E3
S113005031010000310100003101000031010000D4
S113006031010000310100003101000031010000C4
S1130070310100003101000031010000511A00007B
S113008031010000310100003101000031010000A4
S11300903101000031010000310100003101000094
S11300A03101000031010000310100003101000084
S11300B031010000310100003101000010B5064C8F
S11300C02378002B07D1054B002B02D0044800E015
S11300D000BF0123237010BD880000200000000031
S11300E0F0600000084B10B5002B03D00749084806
S11300F000E000BF07480368002B00D110BD064B89
S1130100002BFBD09847F9E7000000008C0000208A
S1130110F0600000F06000000000000010B5024B29
S11301209847024B984710BD7D0D000065330000D1
S1130130FEE7000010B5104A104B9A4209D00F4B4D
S11301400D4A03E011681960043304320C498B42F0
S1130150F8D30C4B02E000221A6004330A4A93429B
S1130160F9D30A4AFF210A4B8B439360094B984702
S1130170094B9847FEE7C046F060000000000020ED
S113018088000020880000206C06002000ED00E0BC
S113019000000000914D0000F92F000010B504008C
S11301A0054B98472000054CA0470020A04700209D
S11301B0A047034B984710BDBD0A0000D90A0000B0
S11301C0C90A000070B504000A4B9847200CC0B25D
S11301D0094DA847200AC0B2A847E0B2A8470020AA
S11301E0A8470020054B98470400054B984720007A
S11301F070BDC046BD0A0000D90A0000F90A00001B
S1130200C90A000070B504000C4B9847200CC0B21A
S11302100B4DA847200AC0B2A847E0B2A847002067
S1130220A8470020074DA84704000020A847000263
S11302300443A4B2044B9847200070BDBD0A0000DB
S1130240D90A0000F90A0000C90A000070B50400C8
S11302500D000A4B9847230CDBB280204042184320
S1130260C0B2074EB047200AC0B2B047E0B2B047B0
S11302702800B047034B984770BDC046BD0A000034
S1130280D90A0000C90A000070B505000E000B4B26
S113029098472B0CDBB2802040421843C0B2084C74
S11302A0A047280AC0B2A047E8B2A047F0B2A047CE
S11302B0300AA047034B984770BDC046BD0A0000F2
S11302C0D90A0000C90A000070B506000D000E4BE3
S11302D09847330CDBB2802040421843C0B20B4C29
S11302E0A047300AC0B2A047F0B2A047E8B2A04786
S11302F0280AC0B2A047280CC0B2A047280EA047C5
S1130300034B984770BDC046BD0A0000D90A0000DF
S1130310C90A000010B50648064B9847064B1B88CF
S11303209BB2984201D0012010BD0020FCE7C046DA
S1130330F820300005020000A400002070B50B4B2B
S11303409847B0200A4CA0472020A047FC20A04793
S1130350084D2888C0B2A0472888000AA047064B49
S11303609847064B98470028FBD170BDBD0A000092
S1130370D90A0000A4000020C90A000015030000E7
S113038010B50348034B9847034B188010BDC04673
S1130390FC20300005020000A4000020044A138859
S11303A0181880B2108013881B051B0D138070472A
S11303B0A400002070B50600114B1D88C2239B03C6
S11303C09C4665440F4B98472B0CDBB2802040427F
S11303D01843C0B20C4CA047280AC0B2A047E8B2E8
S11303E0A047F0B2A047300AC0B2A047300CC0B258
S11303F0A047300EA0470420044B984770BDC04668
S1130400A4000020BD0A0000D90A00009D030000DA
S113041010B5024B9847024B984710BDB503000036
S1130420C90A000070B50500002403E00C4B98478E
S11304300134E4B2285D0028F8D1032323400425C5
S1130440ED1AEDB206E00020054B9847013DEDB2F0
S11304500134E4B2002DF6D1A0B2024B984770BD2E
S1130460D90A00009D030000F0B583B006000D001A
S113047014000193F4204042104B9847F0B2104FFF
S1130480B8473612F0B2B847E8B2B8472D12E8B20E
S1130490B847E0B2B8472412E0B2B847019CE0B2D2
S11304A0B847200AB8470820064B98470898064BD7
S11304B09847064B984703B0F0BDC046B50300000B
S11304C0D90A00009D03000025040000C90A0000A9
S11304D070B50400F7204042094B9847E0B2094D3B
S11304E0A847200AC0B2A847240CE0B2A8470020BD
S11304F0A847054B98470420044B984770BDC04655
S1130500B5030000D90A0000C90A00009D030000D9
S1130510F0B5DE4657464E464546E0B583B0060084
S11305200D00140001930CAB1A8893460DAB1A8886
S113053092460EAB1A8891460FAB1A889046ED206E
S11305404042214B9847F0B2204FB8473612F0B2E0
S1130550B847E8B2B8472D12E8B2B847E0B2B84796
S11305602412E0B2B847019CE0B2B847200AB84769
S11305705B466A4613711079B8475B46180AB84758
S113058053466A4613711079B8475346180AB84758
S11305904B466A4613711079B8474B46180AB84758
S11305A043466A4613711079B8474346180AB84758
S11305B0074B98471020074B984703B03CBC904624
S11305C09946A246AB46F0BDB5030000D90A000027
S11305D0C90A00009D030000F0B5DE4657464E46AA
S11305E0C0B582B007000E00150001930AAB1A884B
S11305F093460BAB1A8892460CAB1A889146F120AD
S113060040421F4B9847F8B21E4CA0473F12F8B225
S1130610A047F0B2A0473612F0B2A047E8B2A04714
S11306202D12E8B2A047019DE8B2A0472B12D8B220
S1130630A0475B466A4613711079A0475B46180AC7
S1130640A04753466A4613711079A0475346180AC7
S1130650A0474B466A4613711079A0474B46180AC7
S1130660A0470020A0470020A047074B9847102030
S1130670064B984702B01CBC91469A46A346F0BD6F
S1130680B5030000D90A0000C90A00009D03000058
S1130690F0B583B006000D0014000193D22040424F
S11306A0154B9847F0B2154FB8473612F0B2B84719
S11306B0E8B2B8472D12E8B2B847E0B2B8472412FE
S11306C0E0B2B847019CE0B2B847200AB84702AB91
S11306D0187EB847089B1812C0B2B847089B181474
S11306E0C0B2B847089B180EB847054B98470C2072
S11306F0044B984703B0F0BDB5030000D90A0000CD
S1130700C90A00009D03000070B506000D00C12059
S113071040420D4B9847F0B20C4CA047360AF0B259
S1130720A0470020A0470020A047E8B2A0472D0A18
S1130730E8B2A0470020A0470020A0470820044BAF
S11307409847044B984770BDB5030000D90A0000D0
S11307509D030000C90A0000F0B5D6464F46464640
S1130760C0B505000E009146984608AB1C88274882
S1130770274B98472401FF2000010440E0273F0550
S11307802743F8B2234CA047380AC0B2A047002040
S1130790A047380EA047ED041F4B9A461D40360172
S11307A01E4F3E4035438026F6053543E8B2A04748
S11307B0280AC0B2A047280CC0B2A047280EA04700
S11307C04B46DD0453461D4043461801384005435B
S11307D03543E8B2A047280AC0B2A047280CC0B2EB
S11307E0A047280EA0470020A0470020A0470020D3
S11307F0A0472120A0470A4B98471020094B98474F
S11308001CBC90469946A246F0BDC0460300001F9A
S1130810B5030000D90A00000000F83FF07F000093
S1130820C90A00009D030000F0B5D6464F4646466F
S1130830C0B505000E009146984608AB1C882748B1
S1130840274B98472401FF2000010440E0273F057F
S11308502743F8B2234CA047380AC0B2A04700206F
S1130860A047380EA047ED041F4B9A461D403601A1
S11308701E4F3E4035438026F6053543E8B2A04777
S1130880280AC0B2A047280CC0B2A047280EA0472F
S11308904B46DD0453461D4043461801384005438A
S11308A03543E8B2A047280AC0B2A047280CC0B21A
S11308B0A047280EA0470020A0470020A047002002
S11308C0A0472120A0470A4B98471020094B98477E
S11308D01CBC90469946A246F0BDC0460900001FC4
S11308E0B5030000D90A00000000F83FF07F0000C3
S11308F0C90A00009D030000F8B54B4B9847062039
S11309004A4CA0474A4B98471520A0474820494CD9
S1130910A0470020A0474848484B984705000024BA
S11309207C2D0CD04448454B9847050001203F4B93
S113093098470134E4B2C82CF2D9002072E0404F49
S1130940002138003F4DA8470A213F48A847F0211D
S113095049003E483E4CA0478421C9003D48A04779
S11309602E213D48A04700213C48A0470A213C488D
S1130970A047882149003B48A0473B493B48A04742
S113098017213B48A04700213A48A0470A213A488A
S1130990A04700213948A84701213948A847032125
S11309A03848A847E121C9003748A0470021374803
S11309B0A84700213648A847C021C9013548A047A7
S11309C080218904C0208003334CA0473349344834
S11309D0A04700213348A04702213348A047334CA5
S11309E02000164EB0477E2149420143C9B220007F
S11309F0A8472F4C2000B047802149420143C9B287
S1130A002000A84702213800A84746210E48A847DD
S1130A100220064B9847274B98470128FBD0264BCA
S1130A2098470120F8BDC046D50A000059100000BF
S1130A30D70A00009D01000000203000C50100001D
S1130A40702030004D020000D420300034203000EB
S1130A50890200002C203000302030003820300083
S1130A603C203000482030000D02000040203000BF
S1130A70442030004C2030005020300064203000EE
S1130A806C20300004213000182130008020300018
S1130A908420300088203000C902000007000026AE
S1130AA00400300008003000542030009020300052
S1130AB0942030001503000081030000802292027C
S1130AC0C023DB055A61704780229202C023DB05F4
S1130AD09A6170477047704700B583B06B46D91D63
S1130AE00870034B18680122024B984703B000BDFD
S1130AF0980100207910000010B582B06B46DC1D0F
S1130B00D871044B186801222100034B98472078C0
S1130B1002B010BD98010020B110000010B5074AC2
S1130B20516980239B000B435361054B9847020096
S1130B3004490548054B984710BDC04600080040CD
S1130B400F1E000000240040E801002015130000DF
S1130B5030B58223DB054422995C0125A943012495
S1130B602143C9B299543220195C353A9143032286
S1130B701143C9B2195445215A5CAA432243D2B243
S1130B805A541A5C36390A4030210A43D2B21A54F4
S1130B9030BD0000064B4121CC2299500231043A69
S1130BA09950044AD36941390B43D3617047C04615
S1130BB0001C00400008004010B5054B9847002277
S1130BC004490548054B9847054B984710BDC04656
S1130BD0950B000000040042DC01002025150000F4
S1130BE0510B0000F0B5CE46474680B5C024E4055D
S1130BF080235B026361A3608223DB058022D2052C
S1130C0091469A62214999625020195C0126B143A8
S1130C1001252943C9B219541838195C0F27BC4659
S1130C20B94302273943C9B219548021C90261600A
S1130C3017499962174999625221585C04229043DA
S1130C405854585CB0432843C0B258543920195CF6
S1130C50624691433943C9B2195480210903616141
S1130C60A1604A469A620C4A9A6253215A5CB24382
S1130C702A43D2B25A541A5C44390A4020210A4306
S1130C80D2B21A540CBC90469946F0BD010000C083
S1130C9000000240040002C0080000C0064B4221CC
S1130CA0D02299500131083A9950044AD3693F3906
S1130CB00B43D3617047C046001C0040000800404D
S1130CC010B5044B984704490448054B9847054B15
S1130CD0984710BD9D0C0000000800429C010020B4
S1130CE0E9100000E50B000010B50248024B9847DC
S1130CF010BDC04610E000E04510000030B582236E
S1130D00DB055922995C0125A94301242143C9B279
S1130D1099543C20195C4A3A114060221143C9B2EB
S1130D20195458215A5CAA432243D2B25A541A5C29
S1130D3049398A4306210A43D2B21A5430BD00000D
S1130D4010B5084A116980235B000B4313614121EC
S1130D50E823054AD15005490548064B9847064BF8
S1130D60984710BD00080040001C0040001C0042D1
S1130D70B4010020D50E0000FD0C0000F8B5DE46DD
S1130D8057464E464546E0B5364B9847C022D205F5
S1130D9080231B02536193608223DB0532499962ED
S1130DA0C021090699624F24185D01218843185512
S1130DB080208002906190608024E4059C622B482E
S1130DC098625125585D88435855802080035061AE
S1130DD090609C62264898625524185D8843185593
S1130DE084268020400184469051A8272148D85168
S1130DF021488346D851604690517B355C5D042080
S1130E00814648460443E4B25C55942080466446D7
S1130E101450C524185D88431855202084469051E9
S1130E201648D8515846D85160469051185D4E46E0
S1130E303043C0B218554046644614505A5D8A4344
S1130E405A550F4B98470F4B98470F4B98470F4BEA
S1130E5098470F4B98473CBC90469946A246AB46F0
S1130E60F8BDC046CD1A000000800040020000C05A
S1130E70200000C000100240000002C02000024018
S1130E801D0B0000B90B0000C10C0000E90C0000B0
S1130E90410D0000EFF31083036072B6BFF35F8F60
S1130EA07047BFF35F8F036883F31088704710B5F2
S1130EB0C369002B00D0984710BD10B5036A002BFE
S1130EC000D0984710BD10B5436A002B00D0984756
S1130ED010BD000070B504000D00002815D00029D5
S1130EE011D0012041220A490A4B984729002000C9
S1130EF0094B9847002805D1084B6360084BA36051
S1130F00084BE36070BD0020ECE70020EAE7C04630
S1130F106C5C00009D1500003D160000AF0E000043
S1130F20BB0E0000C70E000010B50400431E98411C
S1130F30C0B25C220349044B98472000034B9847F6
S1130F4010BDC0466C5C00009D1500004D170000EC
S1130F5070B504000D0000280DD0002909D001202F
S1130F606E220649064B984729002000054B9847F6
S1130F7070BD0020F4E70020F2E7C0466C5C00007E
S1130F809D1500005D17000070B504000D000028D9
S1130F900DD0002909D0012077220649064B984735
S1130FA029002000054B984770BD0020F4E700207D
S1130FB0F2E7C0466C5C00009D1500001D1800009F
S1130FC070B506000D001400431E9841C0B2812282
S1130FD00C490D4B9847012D10D0002D04D0022D43
S1130FE00ED00D20404208E03462621E9441E2B209
S1130FF029003000054B9847002070BDF461F4E7E8
S11310007462F2E76C5C00009D1500007919000021
S1131010F8B504000D0016001F00431E9841C0B22D
S1131020B8220549054B98473B00320029002000AF
S1131030034CA047F8BDC0466C5C00009D15000041
S1131040C519000010B5024B1860024B984710BD3B
S1131050A80000205523000010B5044B1C68044B65
S1131060984701002000034B984710BDA8000020BA
S1131070C11A00006123000070B504000D001600C1
S113108000280ED000290AD0012034220649074B3B
S113109098472368320029002000984770BD00203B
S11310A0F3E70020F1E7C046885C00009D150000CE
S11310B070B504000D00160000280ED000290AD0D7
S11310C001203D220649074B9847636832002900F6
S11310D02000984770BD0020F3E70020F1E7C046E8
S11310E0885C00009D15000070B504000D00002808
S11310F017D0002913D0012040220B490B4B9847ED
S11311006560201D29000A4B9847002806DB094B1F
S1131110A382094B2361094BE360002070BD0020CA
S1131120EAE70020E8E7C0469C5C00009D1500004B
S1131130FD1F00000080FFFFED110000B111000051
S113114010B50400431E9841C0B257220349044B12
S11311509847201D034B984710BDC0469C5C000077
S11311609D150000F921000030B587B004000D0082
S1131170002815D0002911D00120B32209490A4BB7
S113118098472B6803936B680493AB6801930593AA
S1131190201D03A9054B984707B030BD0020ECE79C
S11311A00020EAE79C5C00009D1500002D22000051
S11311B070B584B004000E001500431E9841C0B2FF
S11311C0A3220749074B984720000C3800230293B9
S11311D00196039501A9044B984704B070BDC0461D
S11311E09C5C00009D1500006911000070B584B07E
S11311F004000E001500431E9841C0B2872207491F
S1131200074B984720000C3802960023019303955E
S113121001A9044B984704B070BDC0469C5C000013
S11312209D1500006911000070B504000D00002830
S11312300CD0002908D00120BD220549054B984750
S11312400C342C60002070BD0020F5E70020F3E78B
S11312509C5C00009D150000F8B50668002E02D0C5
S1131260330000250CE0104B984718E09F68BC46FB
S11312706444A41A01348F68BC420BD21D001B685D
S1131280002B07D05C689442F0D8A41A9F68BC462F
S11312906444F0E7B34203D02800044B9847F8BDF8
S11312A0014B9847FBE7C046BD150000E915000057
S11312B0F8B50500446903695E1C0661037EDB071B
S11312C002D4037E9B070AD52B7E02221343DBB292
S11312D02B76F8BD6F69E368200098473C00002C2A
S11312E0F7D06368F31AA2689342F2D32F0014373D
S11312F03800064B9847237C012BEBD16660320003
S113130021003800024B9847E4E7C046F11500007D
S11313105912000070B504000D00002812D00029F5
S11313200ED001203B220849084B98472900200091
S1131330074B984700232361064B2360002070BDB0
S11313400020EFE70020EDE7B85C00009D150000E9
S1131350311D0000B112000010B50400431E984175
S1131360C0B253220749084B98472000074B9847BF
S1131370002804D12000064B9847002010BD1120FE
S11313804042FBE7B85C00009D150000F51D00001D
S1131390991D000070B582B004000D00002826D00D
S11313A0002922D001207A221F49204B9847237E0E
S11313B001221343DBB223762600143629003000C1
S11313C01B4B9847002814D123696B6022692900BC
S11313D03000184B9847237E012293432376237EC3
S11313E09B0712D4002002B070BD0020DBE7002070
S11313F0D9E7237E0122934323767E320A490020D3
S11314000A4B984712204042EDE701A80A4B98473F
S1131410237E0222934323762000084B984701A899
S1131420074B98470020DEE7B85C00009D150000DC
S1131430A515000059120000950E00000D1E0000B5
S1131440A30E0000F8B505000E001700002823D0F5
S1131450002923D0002A23D10020F1221149124B64
S113146098472C0008342000104B98470028F8D0E7
S11314700025715D20000E4B984720000B4B9847C8
S11314800028FAD00135BD42F3D32000094B984718
S11314900028FAD02800F8BD0020DEE70020DCE7B1
S11314A00120DAE7D05C00009D150000DB1F00007E
S11314B0CB1F0000E51F0000F8B5CE46474680B5B7
S11314C0051E884691461FD000291FD0002A1FD12F
S11314D00020862252000F490F4B984700262C000B
S11314E0083420000D4B98470028F8D043469F1934
S11314F020000B4B9847387001364E45EFD330002F
S11315000CBC90469946F8BD0020E2E70020E0E7D5
S11315100120DEE7D05C00009D150000F11F0000F3
S1131520D31F000070B504000D00002814D000295A
S113153010D0012034220949094B98472000083073
S11315402900084B9847002803D1074B6360074BD9
S1131550236070BD0020EDE70020EBE7D05C0000C5
S11315609D1500008D1F0000B914000045140000F3
S113157010B50400431E9841C0B253220449054BE0
S1131580984720000830044B9847002010BDC046FF
S1131590D05C00009D150000B91F0000002800D198
S11315A000BE70470368002B03D08B4203D01B6836
S11315B0F9E7002070470120FCE7000070B5040043
S11315C00D00064B984701235840C0B23922044904
S11315D0044B984723682B60256070BDA515000057
S11315E0EC5C00009D15000003680B60016070470F
S11315F00368002B03D01A680260180070470020AB
S1131600FCE700000300064A1268002A04D0044ADA
S11316101068C318136070470249014A1160F6E765
S1131620AC00002070260020012040427047802337
S11316309B014B600020704700207047F0B50160AB
S11316408B69012213438B6103689A69D207FBD526
S11316509A69022422439A61344B99420FD002685A
S1131660936902218B4393610268936901398B4327
S1131670936103689B69DB07FBD40020F0BD2C4B0E
S11316801A0001C22B49816101688C698C6101686F
S113169002248C600168284CCC610168274CCC6022
S11316A0274C2404240C802189020C43A0250668BD
S11316B0745100241C35066874510C350668745145
S11316C0204D2D042D0C8026B6043543C026076812
S11316D0BD511204120C0A43F02506687251703D84
S11316E02822066872511A0014321204120C0A439A
S11316F084260768BA511C331B041B0C0B43882235
S113170001688B5090230268D4500F4B8022120240
S11317105A51BFF34F8FBFF36F8FC02149005A5006
S11317201A6003680122DA6599E7C046001C00428A
S1131730B000002000000020030A0206330A020061
S1131740040200202402002000E100E00268936902
S113175001218B439361002070470000F0B5C64619
S113176000B584B084460368A4229A58520648D02F
S1131770A4229F583F0A653A1740B846244A934228
S11317801CD00025002D3FD02B685B001AD4002309
S11317908B732B68DB005B0D0B602B689B0018D4EC
S11317A06B461C4A6C46C1CAC1C4126822606A688E
S11317B01203120F9E5C4E73002312E03B01164D80
S11317C05D19DFE701238B732B68DB00DB080B60FB
S11317D0E3E701230B71E3E7EA18147ACA1854719A
S11317E00133B342F8DB63461968A8228B583F20C3
S11317F0834347461F438F50002004B004BC9046E7
S1131800F0BD0A204042F8E71C204042F5E7C046FC
S1131810001C00420C5D00000402002070B50500AD
S11318200368C4229A58920200D593E0C4229858BF
S1131830000CA53A10404A4A93423AD000200028AE
S113184000D18AE08B7B012B37D00B689B040360AB
S11318504A7B082A39D844680F2313401B04414AA1
S11318601440234343602B689B691B0A012442688C
S113187023405B053C4E3240134343602B689B6915
S11318805B0A426823401B05384E324013434360D1
S113189008304B1D4A7B1900354B98472968C423EF
S11318A0CA58120CA53B13409C40D023CC500020B6
S11318B070BD00012F4BC018C1E70B6803600268BC
S11318C08023DB0513430360C2E70C2A07D8426870
S11318D0244B1A4090231B0313434360C3E7102A8D
S11318E007D842681F4B1A40A0231B0313434360CD
S11318F0B9E7142A07D842681A4B1A40B0231B03CD
S113190013434360AFE7182A07D84268154B1A40BF
S1131910C0231B0313434360A5E7202A07D842686A
S1131920104B1A40D0231B03134343609BE7302A18
S113193007D842680B4B1A40E0231B031343436050
S113194091E7402A00D98EE74268F0231B03134332
S1131950436088E71C204042AAE71C204042A7E7D6
S1131960001C0042FFFFF0FFFFFFDFFFFFFFEFFF60
S1131970D94D00002402002010B5002909D0012906
S11319800ED002290BD10268536D0C490B405365EC
S113199005E001684B6D012083431A434A6510BD7D
S11319A001684B6D064C234052021A434A65026893
S11319B001214942E023D150F1E7C0460102000071
S11319C0FFFDFFFF30B584698800E568AC466044DC
S11319D02469C9006118002A1DD1002B19D05A6846
S11319E002601B6802685B055B0917490A401343E0
S11319F0036003689B009B08802212061A4302605E
S1131A000268124B1A4080231B0513430360002015
S1131A1030BD0360FBE7012AF9D1002B12D01A680C
S1131A200A600A68D200D20880208005104308604A
S1131A305B684B604B689B009B08802212061A432C
S1131A404A60E4E70B60E2E7FFFF00F8FFFFFFC72F
S1131A5070B51A4B1D682B681C6DE30714D4A305DD
S1131A6016D4A30118D4E3011BD4230207D5EB68D1
S1131A702A68526C920619D5022128009847230738
S1131A8016D42B681C6570BD2800AB689847E6E740
S1131A9028006B689847E4E703212800EB6898471F
S1131AA0E1E700212800EB689847DEE70121E4E73D
S1131AB004212800EB689847E3E7C046B000002003
S1131AC003011B1A1A0164205043704710B5094AD8
S1131AD0536806210B435360074B9847074B9847BD
S1131AE0074B9847074B9847FF20074B9847074BEE
S1131AF0984710BD00400041411C0000651C0000D7
S1131B00351C0000A11C0000C91B0000111B0000B3
S1131B109022D205137802218B431370704710B5BD
S1131B2082B0EFF31083019372B69023DB051A7829
S1131B30012422431A709860D9609023DB051B7935
S1131B40DB07FAD49023DB051869019B83F3108823
S1131B5002B010BD10B582B0EFF31083019372B6DA
S1131B609023DB051A780124A2431A709860D96087
S1131B709023DB051B79DB07FAD49023DB05186976
S1131B80019B83F3108802B010BD000010B582B031
S1131B90EFF31083019372B69023DB051A780124C6
S1131BA0A2431A709860D9609023DB051B79DB0788
S1131BB0FAD4044B18685968019B83F3108802B067
S1131BC010BDC04610000048C30707D5134A144B84
S1131BD01A62134B5A68134B1A42FAD1830707D57A
S1131BE0114A0F4B5A620E4B5A680E4B1A42FAD1E5
S1131BF0430707D50D4A0A4B9A62094B5A68094BA9
S1131C001A42FAD1030707D5094A054BDA62044B95
S1131C105A68044B1A42FAD17047C04606010200C2
S1131C20001C0040FD0700000701010006010C0034
S1131C30060178000122014B1A7170470008004028
S1131C40074A8E23938200239375D375D3691B0AA5
S1131C501B02F82149010B40D36101231361704732
S1131C60001400400D4B02221A7500225A750B4BCA
S1131C709B695B07FBD4094B9B695B07FBD4072279
S1131C80064B9A75054BDB68DB06FBD5034A137DCF
S1131C90802149420B43DBB21375704700100040AA
S1131CA0194A1A4B1A622C23184AD25C1E3B1A4258
S1131CB0F9D1164B00225A6228215A542C23134A74
S1131CC0D25C1E3B1A42F9D10222104B1A772C2304
S1131CD00E4AD35C9B07FAD430230C4AD35CDB074F
S1131CE003D43023D35C9B07F6D5084A137F8021A5
S1131CF049420B43DBB213772C23044AD25C1E3BCC
S1131D001A42F9D17047C046B7050D0000100040D3
S1131D1010B50400C3689B89DB0507D50368002B55
S1131D2000D09847E368802252009A8110BD0000D9
S1131D3070B504000D00431E9841C0B23022114911
S1131D40114B9847E56001232B802A690F4B1A42F7
S1131D50FBD1E3681A69D207FCD40D4A1A801969C9
S1131D600A4A1142FBD1E2682023136213699B06DD
S1131D70FCD480235B00E2685381064B1C60002086
S1131D8070BDC0461C5D00009D150000038000006E
S1131D908080FFFFDC00002010B5041E20D0C36843
S1131DA0002B1BD001205C220E490F4B98470422C4
S1131DB00E4B1A60E2680023936113691B07FCD47D
S1131DC0E3681A691207FCD41A8802210A4392B202
S1131DD01A801969064A1142FBD110BD0020E2E7BE
S1131DE00020E0E71C5D00009D15000000E100E01C
S1131DF003800000C1680A69034B1A42FBD10B88B7
S1131E005B080120184070470380000070470020E1
S1131E107047000010B5024B1868024B984710BD7C
S1131E20DC000020111D0000024B9C466044800A27
S1131E30C0B2704700FCFFBDC369DB0708D4036868
S1131E40022213430360C3699B07FCD1002070473F
S1131E5004204042FBE7000010B50B4B98470200FA
S1131E600020002806D0094A09490020094B984758
S1131E70002010BD83001B189900074BCB5C9A42CD
S1131E80F7D00130C0B2ECE7291E00003A0200008E
S1131E90845D00009D150000345D000070B50400F1
S1131EA0384B9847E369DB071DD483001B189A005D
S1131EB0354B9B185A681C231A40E3699B07FCD1D5
S1131EC023689B0709D5236802218B432360E369B8
S1131ED09B07FCD1E3699B07FCD4012313432360D4
S1131EE0E3699B07FCD1E369DB07FCD483001B187F
S1131EF09A00254B9B185B682360E3699B07FCD120
S1131F0083001B189A00204B9B189B686360E3694D
S1131F105B07FCD183001B189A001B4B9B185B6862
S1131F209A040BD4C022D201134207D183001B1898
S1131F309A00154B9B189B89A38115E083001B18FD
S1131F409A00114989188A89A389D204D20C5B0B9F
S1131F505B031343A3818B7B07221A40A38952039B
S1131F60DB04DB0C1343A381074A83001D18A9007B
S1131F700D005118C97BA1735219127C3023E2540D
S1131F80002070BD591E0000345D000070B50500CE
S1131F900C00431E9841C0B2B4220449044B984734
S1131FA02C602000034B984770BDC046845D000040
S1131FB09D1500009D1E00000268136802210B435A
S1131FC01360D3699B07FCD17047036889B21985F4
S1131FD070470368188DC0B270470368187E0123E8
S1131FE01840704703681B7E5B0801201840704747
S1131FF003681B7E9B0801201840704770B50600DB
S11320000C000800714B98470023002B00D184E09A
S11320100025002E00D18DE0002C00D188E00120A5
S11320206B4A6C496C4B9847002D00D1CBE0E369B7
S1132030DB0721D42A786B781B021343AA78120495
S11320401343EA7812061A431C231A40E3699B07D8
S1132050FCD123689B0709D5236802218B432360A5
S1132060E3699B07FCD1E3699B07FCD40123134379
S11320702360E3699B07FCD1E369DB07FCD434608C
S11320802B786A7812021A43AB781B041A43EB7854
S11320901B0613431C221340082B4DD0002C00D1E7
S11320A08DE0002D00D188E001204C4A49494A4B7B
S11320B098472B786A7812021A43AB781B041A43A8
S11320C0EB781B061343464A13402360E3699B07DE
S11320D0FCD12B796A7912021A43AB791B041A4397
S11320E0EB791B0613433F4A1340802292021343A9
S11320F06360E3695B07FCD12B7B23736A7B30232A
S1132100E2542B795B075CD101233371AA7BEB7B0F
S11321101B021343F380002070BD012802D0013359
S1132120DBB272E71D01EA182F4D3C35AD1870E79C
S1132130002075E7002073E7002C3CD0002D38D038
S113214001202A4A2349244B98472B786A781202A3
S11321501A43AB781B041A43EB781B061343204A3B
S113216013402360E3699B07FCD12B796A7912023F
S11321701A43AB791B041A43EB791B0613431C4A1D
S113218013401C4A13436360E3695B07FCD12B7A59
S11321906A7A12021A43AB7A1B041A43EB7A1B06BF
S11321A0134363626A7B3023E254E369002BFCD15E
S11321B0A7E70020C5E70020C3E7002075E700205B
S11321C073E70223A1E70D204042A5E7291E000082
S11321D025090000845D00009D150000EF08000043
S11321E0FCFEFFFFBF1DFDFF345D0000030900007E
S11321F0BFDDFDFF4002020010B5041E0ED00368CF
S1132200002B09D00120982212010549054B98475B
S11322102068054B984710BD0020F4E70020F2E742
S1132220845D00009D150000391E0000F0B5CE4607
S1132230474680B589B081460D0004680B68039356
S11322404B6804930023059306930679002814D061
S1132250002C10D00120374A3749384B9847E3699E
S11322605B0764D1E3699B07FCD123689B0720D4F7
S11322701420404256E00020EDE70020EBE7002266
S11322802DE04878000247460743B84602310391DF
S1132290013205924246A2625BB2002B35DB00207C
S11322A000283ADB0598AB68984202D3069A934219
S11322B033D9237EDBB25A07E1D5A16A049A002AF6
S11322C008D0501C04901170012E03D9901C049066
S11322D0090A5170069A0192013206920122002ADB
S11322E0DAD10699059A9142D6D34946C888D907C6
S11322F0D2D50399002906D0481C0390087880465B
S1132300012EBED8C4E78046C2E701235B42638343
S11323108133237613204042C2E7237E9B07FCD0FF
S11323200323237609B00CBC90469946F0BD0420E3
S11323304042F7E7850A0000845D00009D15000017
S1132340024B034A5A6005221A60704710E000E00D
S1132350FFFFFF0010B5014B984710BD412300005B
S1132360080E0BE00B4B0C4858609860094B1B6837
S1132370DB03FBD5094B9C4661441000421ED2B2DC
S11323800028EFD1034B59609960024B1B68DB03B3
S1132390FBD5704710E000E0FFFFFF00010000FFE5
S11323A00E4B187800010E4A80181B7801333F2B1E
S11323B00FDC0A4A13780133DBB21370074B5B78E6
S11323C0DBB23F2B04D8054A53780133DBB2537098
S11323D070470022014B1A70F0E7C046E00000206D
S11323E0440200200E4B987800010E4A80189B7816
S11323F001333F2B0EDC0A4A93780133DBB293702E
S1132400074B5B78002B09D0054A5378013BDBB2BC
S1132410537070470022024B9A70F1E70020F8E7EE
S1132420E000002044020020024A53680133536054
S11324307047C046E0000020024A9368013393606D
S11324407047C046E0000020064B01221A730022A8
S113245005490A7080208003C021C90548619A603B
S11324607047C046E000002014000020024A1369AF
S1132470013313617047C046E0000020024A5369EB
S1132480013353617047C046E000002070470000EC
S113249010B50400034B984701002000024B9847F5
S11324A010BDC046A1230000510F000070B58CB0D0
S11324B006AB244A127E1A70234A12785A700022FC
S11324C09A70DA701A715A719A71DA711F4B089303
S11324D008AB1A71002305E006AAD15C08AAD21839
S11324E051710133072BF7DD08AB08225A7300241E
S11324F09C7300216846164B9847124B5B7E6A46D4
S11325001370A023DB00029302AB1C71002305E0CF
S11325106A46D15C02AAD21851710133072BF7DD48
S113252002AD08236B730023AB730A4C20000A4BE3
S1132530984708A92000094EB04729002000B04759
S11325400CB070BDE00000201400002069040000FD
S1132550EB4D0000B4010020290F0000890F00009A
S113256010B50448044CA0470448A0470448A047B9
S113257010BDC04600FFFFFF110400007F7F7F06EF
S11325800700002610B50020034CA047FF2040425E
S1132590A047024B984710BD110400003D03000002
S11325A0F0B583B004000D0016001F000548064B6B
S11325B0984732B229B220B200970023034CA047B7
S11325C003B0F0BDFFFFFF041104000091060000FA
S11325D0F0B583B004000D0016001F000648074B39
S11325E0984732B229B220B2009780231B01044CD1
S11325F0A04703B0F0BDC046FFFFFF041104000074
S113260091060000F0B583B004000D0016001F0011
S113261008AB187809AB1B780AAA127800041B02CD
S1132620184310438023DB041843064B984732B207
S113263029B220B2009780231B01034CA04703B0AA
S1132640F0BDC0461104000091060000F0B583B04F
S113265004000D0016001F000548064B984732B2CF
S113266029B220B200970023034CA04703B0F0BD69
S1132670FFFFFF041104000069040000F0B583B0FB
S113268004000D0016001F0008AB187809AB1B7876
S11326900AAA127800041B02184310438023DB04A7
S11326A01843054B984732B229B220B20097002351
S11326B0024CA04703B0F0BD1104000069040000FF
S11326C0F0B5CE4600B592B00500089114000C9305
S11326D05648574B9847574F2800B84702900391E4
S11326E02000B84704000D00534A9146534A544B06
S11326F004940595C84702000B00524E0A920B93AE
S113270002980399B047504CA04705000898B84771
S11327104E4F0690079102000B000A980B99B84798
S1132720A04701B209916B4630215B5E190028B2C3
S11327300023009380231B0108910A000999444D4A
S1132740A847444A444B04980599C8470E900F91F2
S113275002000B0002980399B047A0470C903F4A2F
S11327603F4B04980599C84702000B000698079947
S1132770B047A04703B219006B463020185E1423FB
S1132780009380231B01089A0C91A8472B4A354BD0
S113279004980599C8471090119102000B00029803
S11327A00399B047A0470D902F4A304B04980599E0
S11327B0C84702000B0006980799B047A04706B225
S11327C06B463420185E2823009380231B01089A4B
S11327D03100A847109A119B02980399B847A04763
S11327E000B23C2300930023089A3100A8470E9AB4
S11327F00F9B02980399B847A04700B25023009357
S11328000023089E32000C99A8470A9A0B9B029851
S11328100399B847A04700B2642300930023320011
S11328200999A84712B004BC9146F0BDFFFFFF040C
S113283011040000D14C00003D4100009A9999997F
S11328409999E93F3D460000694C00001D3B00009A
S113285091060000CDCCCCCCCCCCF03F1F85EB5105
S1132860B81ED53F9999D93FEC51B81E85EBF13F7D
S1132870F0B5DE4600B58CB00600069115000B934A
S11328803448354A93469047344F3000B847029055
S113289003912800B84705000E00314C0022314B4B
S11328A004950596A04702000B000892099302982C
S11328B003992D4DA8472D4EB04705000698B847FB
S11328C0069007912A4A2B4B04980599A0470200C9
S11328D00B00294F06980799B847B0470A90089A01
S11328E0099B02980399B847B04708900022234BEC
S11328F004980599A04702000B0006980799B84769
S1132900B04702B206926B4620215A5E2821595ED6
S113291028B201230093069B194DA8471948D847AC
S1132920194A1A4B04980599A04702000B00029813
S11329300399B847B0476B462C229A5E00B2129BAB
S1132940009380231B010699114CA0470CB004BCD2
S11329509346F0BDFFFFFF0411040000D14C0000BA
S11329603D4100000000D83F3D460000694C000096
S1132970CDCCCCCCCCCCF03F1D3B00000000E43FE0
S113298029080000FF0000049A9999999999C93F70
S11329909106000030B585B004001748174B9847DE
S11329A0322C21DD4B2C23DD1548164B984764232C
S11329B00393A3B2029305230193053300930023E9
S11329C05F229B219020104DA84717235F229B2153
S11329D090200E4DA847009419235F229B2190203C
S11329E00B4CA04705B030BD0A48064B9847DEE7BC
S11329F00948044B9847DAE7FFFFFF04110400007D
S1132A001616B504D104000011050000C12600000B
S1132A1071280000047004040EA7E304F0B583B029
S1132A2004000D0016001F000648074B98473BB2F0
S1132A3032B229B220B26C46248C0094034CA047D5
S1132A4003B0F0BDFFFFFF041104000059070000AC
S1132A5070B584B0050021282BDD42282DDD1948EE
S1132A60194B984719481A4B984764230293ABB201
S1132A700193002300932D3364222321A8204000D6
S1132A80144CA047C6267600FF24029401940094B7
S1132A902B001D222B2130000F4DA84702940194D6
S1132AA000940E4B1D222B2130000D4CA04704B086
S1132AB070BD0C48044B9847D4E70B48024B984729
S1132AC0D0E7C0460470040411040000C0C0C00470
S1132AD0D1040000D905000005260000D05D0000E7
S1132AE07D2600001616B5040EA7E30470B55B4BF3
S1132AF09847041E7BD00368D622D200934200D1AB
S1132B0076E01AD9564A934200D18DE02BD8554A23
S1132B10934200D181E0544A934268D143795B08DF
S1132B20524D6B62407A0002A37AC018504B98470A
S1132B305049514B9847A86259E0092B31D009D923
S1132B400A2B4ED00222FF32934250D101224B4B2A
S1132B501A704CE0082B4AD14379012B1DD0002276
S1132B60474B1A7043E0474A934200D174E0464A07
S1132B7093423CD143791B0282799B183B4A5363AD
S1132B80C3791B02017A5B189363437A1B02817A2F
S1132B905B18D363C37A136429E00122384B1A709B
S1132BA025E0324900238B608079820801331A4082
S1132BB0364C2270034036480370097B012916D134
S1132BC034490978002912D1002A10D1002B0ED1E2
S1132BD00132304B1A7080229203C023DB059A61C4
S1132BE005E08279214BDA61027A2A4B5A6070BD82
S1132BF0C0790002237AC0181D4EB0471E4D1D49EE
S1132C00A847244B986060790002A379C018B047A4
S1132C101849A847154B1862E9E743791B028279E2
S1132C209B181C4AD360E2E743795B080F4DEB62C3
S1132C30407A0002A37AC0180D4B98470D490E4BF9
S1132C4098472863D3E7E21850799900124A8850CC
S1132C500133072BF7DDCAE70023FAE7E523000079
S1132C60A2070000B1060000A1070000E000002058
S1132C707D3A0000000020411D340000460600207B
S1132C8044060020A4070000A50700004706002012
S1132C90450600201400002048060020F0B5D64662
S1132CA0474680B585B0674B9847674B1B78002B28
S1132CB000D19EE0654B9D6A1C6B211C281C644B53
S1132CC09847002800D02C1C624B9968201C624B4A
S1132CD098476249624B9847624B9847624B9847C2
S1132CE0624B16220A216A20614CA047614B1422D0
S1132CF0812149006A20A04790246400032600969D
S1132D0088235B002200002120005B4DA847F027A8
S1132D107F0000965A233A005A212000A8470096C3
S1132D20B5233A00B5212000A8474A4B5B68D80F69
S1132D30C0184010514B98479C256D00504B1622EB
S1132D400A2128004A4CA0474E4B16226221280033
S1132D50A0474D4B16227E212800A0474B4B16223C
S1132D6099212800A04721210120494B98469847E2
S1132D70364EF36901226221D220FF30454FB84715
S1132D80454B1622BD212800A0473F4B1622D821CF
S1132D902800A0473D4B1622F3212800A0472121FB
S1132DA00120C047726AF36A934200DA13000122D9
S1132DB0BD21D220FF30374CA047384B14220021CC
S1132DC000202B4CA047364B1B78002B2ED1002320
S1132DD002930193C8330093324B142200212B2019
S1132DE0314CA047314B984705B00CBC90469A46ED
S1132DF0F0BD184BD8682E4B9847011C134B186A2A
S1132E00154B98471549164B9847164B9847164B40
S1132E109847284B16220A216A20154CA047264BB6
S1132E201422812149006A20A04765E70023029308
S1132E30802201920093214B6C3A00212B201A4CE2
S1132E40A047CFE76125000044060020E0000020F1
S1132E50CD330000140000201D3400000000C842DF
S1132E60FD3700003D3A000095290000D45D0000C4
S1132E704D260000E05D00001D2A0000512A0000DC
S1132E80085E0000185E0000205E0000285E00005E
S1132E9009070000D1250000305E0000385E000004
S1132EA0460600204C5E00007D26000085250000BB
S1132EB07D3A0000F05D0000F85D0000445E000013
S1132EC0F0B589B0174B9847174B16220021002004
S1132ED0164CA0476A46164B103313CB13C213CBC0
S1132EE013C203CB03C2002415E023011B1B5801AA
S1132EF00C21104B98470500A6006B46F35814228A
S1132F005A210A4FB8470C4BF3581622882128003F
S1132F100A4DA8470134072CE7DD094B984709B04F
S1132F20F0BDC04661250000585E00004D2600003B
S1132F30A05D00001F1B000048060020A125000022
S1132F408525000030B59DB01F4B98471F4C626B20
S1132F501F4914A81F4DA847A26B1F490CA8A847D6
S1132F60E26B1E4904A8A84714AB1D222D2178202A
S1132F701B4DA8470CAB1D225A217820A84704AB4F
S1132F801D2288217820A847236C002B0FD1154BD4
S1132F901D22B5217820124CA047134B1E22E2219A
S1132FA078200F4CA047114B98471DB030BD00232B
S1132FB00293C822019200930D4BAB3AB5217820BD
S1132FC00C4CA047E9E7C04661250000E000002062
S1132FD07C5E0000654F0000945E0000AC5E000063
S1132FE04D260000D85E0000F45E00008525000038
S1132FF0C05E00007D260000F0B587B0894B98477D
S1133000894B1B78002B4CD080229203C023DB0514
S11330109A61864B9847864B9847864C864A01218D
S11330202000864DA847864A00212000A847002595
S11330300495059504AB002200212000814CA04793
S1133040814C0126E664814B2365210044310E74D2
S11330507F48804FB84726667F4B6366210058310E
S11330600E747B48B84766677C4BA36721006C31BC
S11330700E747748B8477A4C7A4BA3607A4BE36076
S1133080257421007248B847E661784B23622423F3
S1133090E654210014316E48B8476D48744B984784
S11330A06BE080229203C023DB055A61B1E7012261
S11330B05D4B1A7080229203C023DB059A6169E09C
S11330C00023042B06DC9A006A495258002A01D1D5
S11330D00133F6E7042B0EDD2823614AD35C002B71
S11330E003D0654B1B78002B08D1644B9847002212
S11330F0554B5A6052E0624B9847F8E7614B98474A
S1133100F5E70022504B1A7660E04F4B1A695E4B8C
S11331109A422CD94C4A537E0133D90F5B180124AF
S113312023405B1A5376594B98474D4B0021282274
S1133130995401329C541AE003A8554B9847C02374
S1133140DB0580229C5820328221C9058A589021AF
S11331505B5853401C40544003A84E4B9847A30669
S113316005D43F4B002228215A5401315A54364B7E
S11331705B69642B4FD8484B9847334B9A68474B4D
S11331809A4207D9284B1B78002B03D12E4B1B7B6B
S1133190012B8CD02C4B5B68642B91D801A83C4B41
S11331A09847C023DB0580229C5820328221C90520
S11331B08A5890215B5853401C40544001A8354B19
S11331C09847E3049DD501221F4B1A7602A8304B81
S11331D09847C023DB0580229C5820328221C905F0
S11331E08A5890215B5853401C40544002A8294BF4
S11331F09847A306A0D52923194AD35C002B9BD159
S11332002833D35C002B80D101212833D1540022F0
S11332100D4B1A61ABE71D4B984700220A4B5A61CC
S1133220A9E7C0461D0100001400002085330000FA
S1133230F9080000B40100208D240000C10F000033
S11332409124000011100000E00000202924000057
S1133250E801002095130000392400007D240000BB
S113326060010020B80B0000492400006D24000018
S11332705913000048060020440600209D2C00003D
S1133280C12E0000452F0000C4090000AD24000039
S1133290950E0000A30E0000ED2A00001027000088
S11332A010B50B00002809D111001800054B9847F0
S11332B0002800DB10BD01204042FBE70120404212
S11332C0F8E7C0461D33000010B50B000138022892
S11332D009D811001800054B9847002800DB10BDE1
S11332E001204042FBE701204042F8E7413300005F
S11332F070B50600064D2B6898680021054CA04760
S11333002B6858680021A047034B1E6070BDC0465F
S113331024000020FB4D00008C01002010B50400A7
S1133320054B1868002804D08AB22100034B984743
S113333010BD0020FCE7C0468C010020B110000045
S113334010B50400054B1868002804D08AB2210087
S1133350034B984710BD0020FCE7C0468C010020B9
S11333607910000010B5044C2000044B984720004D
S1133370034B984710BDC046DC01002071150000C6
S1133380F132000010B5044C04492000044B984766
S11333902000044B984710BD9C0100209801002098
S11333A029120000411100008446081C6146FFE711
S11333B01FB500F0E1F9002801D40021C8421FBD67
S11333C010B500F073F94042013010BD10B500F0A3
S11333D0D3F9002801DB002010BD012010BDC04638
S11333E010B500F0C9F9002801DD002010BD01204E
S11333F010BDC04610B500F07FF9002801DC0020A4
S113340010BD012010BDC04610B500F075F90028AC
S113341001DA002010BD012010BDC046F0B55746AA
S11334204E46DE464546E0B544024300C60F83B02F
S11334300F1C640A1B0EB24653D0FF2B27D08022E8
S1133440E400D20414437F2252429046984400235D
S113345099469B467D027800FB0F6D0A000E00938F
S113346024D0FF2846D080230021ED00DB041D4337
S11334707F384746381A4F460F43BF00B9463300DA
S1133480009A874F53404A46BA5801939746002CF6
S11334904ED108239946F7339846FD3B9B467D025F
S11334A07800FB0F6D0A000E0093DAD1002D26D1AF
S11334B0002001213300009A7A4F53404246101AEB
S11334C04A460A439200BA581D009746009B2C00B6
S11334D09A468B465B46022B31D15346FF2100248A
S11334E038E0002C17D10423994600239846013371
S11334F09B46AFE7FF20002D0BD10221DAE728001D
S113350001F028FC431F9D4076235B42181A0021DA
S1133510AFE70321ADE7200001F01CFC431F9C40F2
S113352076235B421B1A9846002399469B4691E7F3
S11335300C239946F3339846FC3B9B468AE7032BBE
S113354000D1A5E05546012B00D081E001230021E4
S113355000242B406402C905600ADB0708431843B2
S113356003B03CBC90469946A246AB46F0BD8024CD
S11335700023E403FF21EDE7FF210024EAE7012310
S1133580591A1B2966DD019A134000210024E1E742
S11335908023DB031C4238D01D4251D01C436402FB
S11335A0640A3300FF21D5E763016C01A3423BD2D7
S11335B01B260021013801251F0049005B00002F54
S11335C001DB9C4201D81B1B2943013E002EF3D191
S11335D01C00631E9C410C4301007F310029CEDD99
S11335E0630704D00F232340042B00D004342301A9
S11335F003D501002C4B80311C40FE290DDD012335
S1133600019AFF2113400024A4E78023DB031C4319
S11336106402640A3300FF219CE70123019AA40198
S1133620640AC9B2134095E71B1B1A260121C2E79D
S1133630009B8B469A4600244CE76302E5D500259F
S11336408024E4032C436402640A009BFF2181E785
S11336500195C1E723002020CB40411A8C40611E14
S11336608C411C43630704D00F232340042B00D058
S11336700434630105D50123019A01211340002478
S113368068E70123019AA401640A1340002161E759
S11336908023DB031C436402640A5346FF2159E779
S11336A0385F0000785F0000FFFFFFF770B542004D
S11336B045024E024C00C30F6D0A120E760A240E08
S11336C0C90F0120FF2A06D0FF2C03D0A24201D14A
S11336D0B54206D070BD002DFCD1FF2CFAD1002ECE
S11336E0F8D18B4206D00120002AF3D12800451ED0
S11336F0A841EFE70020EDE7F0B5420045024C0297
S1133700C30F48006D0A120E640A000EC90FFF2A87
S11337101ED0FF2821D0002A0AD16E426E41F6B293
S113372000280FD1002C0DD10020002D09D005E078
S1133730002801D1002C01D08B4211D00121584224
S11337400843F0BD002EF7D0012001390843F8E703
S1133750002DDED002204042F3E7002CDBD0F9E755
S11337608242EBDC04DBA542E8D80020A542E8D283
S11337700121581E0843E4E7F0B542004D024C0015
S11337804602760A120EC30F6D0A240EC90FFF2AD1
S113379016D0FF2C18D0002A0AD170427041C0B252
S11337A0002C15D0002805D0012001390843F0BDB4
S11337B0002C13D0994214D001205B421843F6E741
S11337C00220002EF3D1E4E70220002DEFD1E2E73E
S11337D0002DE7D10020002EE9D0EDE7002DE9D13E
S11337E0EAE7A24206DCDFDBAE4203D80020AE42A9
S11337F0DAD3DCE7012049420843D8E7F8B5574655
S11338004E464546DE46E0B54702460088467F0AF6
S1133810360EC40F002E47D0FF2E24D0FB00802785
S1133820FF041F43002399469A467F3E43465D02A8
S11338305800DB0F6D0A000E984643D0FF283BD09A
S1133840EB0080250022ED041D437F383618731CDD
S113385041469B464B46614013430F2B64D8754841
S11338609B00C3589F46002F42D108239946063B2C
S1133870FF269A46DAE74146022A28D0032A00D1D5
S1133880CEE0012A00D0ACE0114000200022CCB2EE
S11338904002D205400AE407104320433CBC904652
S11338A09946A246AB46F8BD002F15D1042399468C
S11338B0033B00269A46B9E7FF200222002DC5D01B
S11338C00322C3E7002D19D100200122BEE7012401
S11338D0FF220C400020DBE7380001F03BFA76269B
S11338E0431F9F4000237642361A99469A469DE725
S11338F00C239946093BFF269A4697E7280001F0D6
S113390029FA431F9D4076235B42181A00229DE743
S113391080200024C003FF22BAE73D005246ABE7F3
S11339203D0021005246A7E73B0C9C462A04120C9A
S11339302B0C1400604665463F043F0C7C43424315
S11339405D437B43270C9B18FF18BA4203D980239D
S11339505B029C46654424043A04240C1219930126
S11339605C1EA3413F0C920E7D191A43AD01154311
S11339702B0104D501235E466A081D40154332001D
S11339807F32002A25DD6B0704D00F232B40042B44
S113399000D004352B0103D53200274B80321D4063
S11339A0FE2A94DC0124A801400AD2B20C406FE73D
S11339B08020C003074207D0054205D128434002B6
S11339C0400A4446FF2263E738434002400AFF228C
S11339D05EE70124A31A1B2B05DD0C400022002006
S11339E056E75E46CBE72A002020DA40C31A9D4002
S11339F02B005D1EAB4113435A0704D00F221A401B
S1133A00042A00D004335A0104D5012401220C40B5
S1133A1000203DE701249B01580A0C40002237E7AF
S1133A2080200124C00328434002400A0C40FF22A6
S1133A302EE7C046B85F0000FFFFFFF741024300D6
S1133A40C20F490A1B0E00207E2B0DDD9D2B0CDCC2
S1133A50802000040143952B0ADC9620C31AD94028
S1133A604842002A00D108007047034BD018FBE7F6
S1133A70963B9940F4E7C046FFFFFF7F70B50028EE
S1133A8030D0C317C4185C40C50F200001F062F9A0
S1133A909E231B1A962B0DDC9622D21A94402A00E0
S1133AA06402640ADBB26402DB05600AD2071843CD
S1133AB0104370BD992B19DC9922D21A002A29DDF2
S1133AC094402200144C1440510704D00F210A40A2
S1133AD0042A00D00434620113D4A401640ADBB2C2
S1133AE02A00E0E7002200230024DCE7052221006D
S1133AF0121AD140B922D21A9440621E94410C4346
S1133B00DAE7054B2A001C409F23A4011B1A640A10
S1133B10DBB2C8E72200D5E7FFFFFFFBF8B5454657
S1133B20DE4657464E460C03E0B54E00C90F8846A4
S1133B300D00610A440F0C43C70019035800DB0F42
S1133B409B464B0A510F0B43760D400D1900D200D2
S1133B50D84500D1AEE0351A002D00DCF6E000288F
S1133B600FD1134300D1DBE06B1E002B00D037E1F3
S1133B70BA1A9742BF41641A7F42E41B0126170018
S1133B8024E0C64B9E424DD080231B041943382D9C
S1133B9000DD07E11F2D00DD38E12020431B9A469C
S1133BA00B0050468340994613004846EB401843A7
S1133BB0030050468240501E8241E9401A43BA1A1B
S1133BC0611A9742A441170064420C1B230262D578
S1133BD06402650A002D00D1DFE0280001F0BAF884
S1133BE00300083B1F2B00DDD2E020223C00D21A48
S1133BF09D40D4409F4025439E4200DDC4E09E1B6F
S1133C00731C1F2B00DDF1E0202238002900D21A9A
S1133C10D840914097402C000143781E8741DC40F6
S1133C2000260F437B0709D00F233B40042B05D00C
S1133C303B1DBB42BF417F42E4191F0023022CD528
S1133C40964B01369E4200D19AE04546944BFF08BC
S1133C501C406007760564020743240B760D00219F
S1133C602403230B0C0D8F4A24051C4314403305F5
S1133C7023435B00ED075B082B43380019003CBC71
S1133C8090469946A246AB46F8BD6446044300D12B
S1133C9011E2040067467B07C6D145466007FF086A
S1133CA00743E4087D4B9E4230D024037605240B61
S1133CB0760DD4E7331A9A46002B78DD002831D0EC
S1133CC076488642AED08020000401435346382B08
S1133CD000DCE9E00A43511E8A410021D219BA42AC
S1133CE0BF4109197C4217000C192302D3D56B4B31
S1133CF001369E4200D13AE10120694B1C407B0809
S1133D0007401F43E007074364088BE723003B4356
S1133D1000D1CBE18022120314432403240B9EE739
S1133D202E007FE70800104300D1B4E0581E00289D
S1133D3000D0DEE0BA18BA429B4164185B42E41832
S1133D40170001262302A6D50226D5E7002D6ED141
S1133D50701C4005400D012800DCF9E0B81A8446C7
S1133D6087428041E51A40422D1A280200D489E096
S1133D70D71BBA4292411C1B5242A51AD84629E7C6
S1133D804546002400276AE7454CF61A2C4049E7CB
S1133D903D002838854000272EE7380000F0DAFF80
S1133DA020301DE70A43511E8A41002107E7002BFA
S1133DB000D0F3E0701C43055B0D012B00DCADE08B
S1133DC0364B984200D1D1E0BA18BA42BF416418C8
S1133DD07F42E419E707520817436408060021E705
S1133DE02E48854200D193E01D00D0E629001F3EF5
S1133DF0F140202B00D18DE04022D31A9D402F4367
S1133E007D1EAF4100240F43002644E72B00080029
S1133E10203BD8400300202D00D17DE04020451BED
S1133E20A9400A43511E8A4100211A43C7E6002EC5
S1133E3050D01A4EB04257D080266B429946360471
S1133E4034434B46382B00DDD6E01F2B00DD35E133
S1133E502026F51A2600AE40B2463E00DE40AC46AF
S1133E60350056462E436546AF407D1EAF41DC40CB
S1133E703743D71BBA4292410C1B5242A41A060084
S1133E80D846A3E6644667462C4300D0A2E6002544
S1133E900026002706E71E00C4E6C046FF07000010
S1133EA0FFFF7FFFFFFF0F801F2B63DC2020C31A5F
S1133EB0080098409C46834653461000D8400300AF
S1133EC05846184363469A40531E9A415346024348
S1133ED0D94003E726003E4306D0EB439946002B26
S1133EE0C7D0944EB042ACD10C0017000600D8469F
S1133EF098E6904B9A450BD08246E7E6002800D01E
S1133F009EE01800104300D1E9E01C001700D846D9
S1133F10884E87E6002572E7002182E723003B43B1
S1133F20002E00D0ABE0002B00D1E7E00B001343E0
S1133F3000D177E6BA18BA42BF4164187F42E41947
S1133F40230200D4F2E07C4B17001C40060069E613
S1133F5020003843002ED1D100285BD11C0014432B
S1133F6000D1A8E01C001700D8465BE60600002438
S1133F70002797E650460B002038C3409946534625
S1133F80202B00D195E0402350461B1A99400A4348
S1133F90511E8A414B4600211A439FE6002E30D120
S1133FA026003E4367D0DB439A46002B1CD0614E6B
S1133FB0B04260D05346382B00DD96E01F2B00DD65
S1133FC09FE02026F31A26009E409C46B3465346A3
S1133FD03E00DE4033005E461E4363469F407B1E28
S1133FE09F415346DC403743BF18974292416418BF
S1133FF05242A418060078E627437C1EA7410024F9
S113400037E74C4EB04236D080265B4236049A469F
S11340103443CFE71800104300D103E6B81A8446AE
S11340206745AD41E01A6D42401B050200D42CE601
S1134030D71BBA4292411C1B5242A41AD846F1E53E
S11340401800104300D163E7F8086707074380208E
S1134050E4080003044208D0DD08054205D1D20873
S1134060590711430F002C00D8467B0FE4001C4372
S1134070FF00304ED6E50C0017000600D2E5002BF9
S113408038D00B00134300D142E7F8086707074311
S11340908020E40800030442E7D0CB080342E4D1C3
S11340A0D208490711430F001C00DEE70027002453
S11340B0D5E500216BE700250027F3E54E462500F2
S11340C0203EF5404B462E00202B2DD04025ED1AE6
S11340D0AC4027437C1EA74100243743C9E6802413
S11340E000252403134E0027DCE527437C1EA7414B
S11340F0002479E70C0017000E4E93E50C0017001E
S113410090E556462300203EF34099465346202B23
S11341100ED0402356469B1B9C4027437C1EA74140
S11341204B4600241F435FE70024D2E71700B2E5A3
S11341300024F2E7FF070000FFFF7FFFF0B55746BA
S11341404546DE464E46E0B50C0398464E00230B2A
S113415087B0070092469B46760DCD0F002E6BD09C
S11341606D4B9E4235D080245B46420F2404DB0015
S113417014431C43C3009946684BA3469C46002342
S113418000276644029343461C035A00DB0F504643
S1134190240B520D984600D176E05F4B9A426DD0C5
S11341A08023410F1B040B435C49E4008C461C43F1
S11341B0C300002062444146B6186940721C019154
S11341C0944607430F2F00D9B0E0554ABF00D25997
S11341D097465B460343994600D087E000239B46FD
S11341E0023308270293CEE742460192022867D0A1
S11341F0032800D10EE2012800D062E1002300244C
S11342000022994601990140CDB2002112030B0D01
S1134210120B1B051343434A240513401C4364003B
S1134220ED0764082C434846210007B03CBC904687
S11342309946A246AB46F0BD034399464FD05B4630
S1134240002B00D189E1584600F084FD03000B3BAC
S11342501C2B00DD7AE11D22D31A3A0001005C46D2
S1134260DA4008398C4013008F4023439B46B946FB
S113427000232D4E0027361A029384E75346234326
S11342802AD10024022096E75346234320D0002C51
S113429000D157E1200000F05DFD03000B3B1C2B17
S11342A000DD49E11D21CB1A51460200D940534695
S11342B0083A944093400C431B4A121A00207AE7B0
S11342C00125019B144C1D400023002299469CE7C4
S11342D00024002201206EE7534603206BE70023ED
S11342E09B4601330427002602934CE703238146AF
S11342F00C27029347E780220023002512039946E6
S1134300054C82E75C464B4602986FE75C464B4699
S1134310019502986AE7C046FF07000001FCFFFF11
S1134320F85F0000FFFF0F800DFCFFFF4A4649467F
S1134330170C1A0C1B041B0C08041900000C414335
S11343401500884619007D43794303958946290061
S1134350150045434D44029545462D0CAA46029D41
S11343605544A94506D98A46802149028946CA444A
S113437051460391290C0491414609042D04090C6A
S113438088462900250C24044144240C059121006D
S113439041438846210079438A4668434146504454
S11343A08146080C48446F43824503D98021490261
S11343B089464F44010C89463900494402914146DB
S11343C00F0404993F0C88460004C01980444146F8
S11343D0049159460F0C0904090C884659438A462E
S11343E039005143894641464A435146090C8B469C
S11343F07B43D2185A44934203D980235B029B46E1
S1134400D94451460904090C8A46414661437C4318
S1134410130C12044B445244A1468A463C004146C4
S11344206C434D4351464D440F0C7D19A94503D9A6
S11344308021490288464444049F0399B846414474
S11344408B468345804141428846514608042F04E7
S1134450000C3F1858460299101889469042924120
S11344604F44BA46524299469346C244D144CB443F
S11344708F42BF41C245894199459B419345924131
S11344807F4249422D0C52420F435B4213437F1932
S1134490FF185B463C19DB0D059A64021C4343027A
S11344A013435D1EAB415A46C00D034352021343EE
S11344B0E20156D501205A0803401343E20713438F
S11344C064085A48604400284DDD5A0709D00F2279
S11344D01A40042A05D01A1D9A429B415B42E418F3
S11344E01300E20104D58020514AC0001440604406
S11344F0504A904200DDE3E60125DB0862071A43D7
S11345006402019B9146220B4405640D1D407CE628
S1134510802259461203114208D0144206D1224384
S11345201203120B45469946434C6EE65B461A430A
S11345301203120B404C68E603005446283B9C408F
S11345400023B9E600F006FC2030A6E60300283B71
S11345509F400023BB4699468AE600F0FBFB2030CF
S113456074E6B446ADE701252A1A382A06DD019B14
S113457000241D4000230022994646E61F2A21DC20
S113458020252000AD1A1E00AB40A840D6405D1E79
S1134590AB4130431843D440430709D00F230340B1
S11345A0042B05D00300181D98429B415B42E4187C
S11345B0230221D50125019B01241D400023002253
S11345C0994622E61F2521006D42281AC1400800A1
S11345D0202A1DD05F35AA1A944023435C1EA341B0
S11345E0072503431D400022002D09D00F2200247B
S11345F01A401800042AD6D1030065076402220B6E
S1134600DB082B4301259946019B00241D40FCE552
S11346100024E2E7802201251203224301991203B8
S1134620120B0D409946044CEFE5C046FF03000011
S1134630FFFFFFFEFE070000FF070000F0B546463F
S1134640D6464F460C03C0B5CD0F4E00610A440F49
S11346500C43C1005800400D84468A460F001903DC
S1134660500F490A0143C648760DA846DB0FD20015
S1134670844500D1D8E001204340AB4200D1A6E0FC
S11346806046351A002D00DC05E1002810D10B002E
S1134690134300D1D7E06B1E002B00D04BE15346EF
S11346A09F1ABA458041641A4042241A01261EE02A
S11346B0B34B9E4248D080231B041943382D00DDA0
S11346C019E11F2D00DD4CE120230F005B1B1000BE
S11346D09A409F40E840531E9A41E94007431743DC
S11346E05346DF1B611ABA45A44164420C1B2302E2
S11346F000D4C5E06402650A002D00D1F6E028006C
S113470000F028FB0300083B1F2B00DDE9E020221A
S11347103C00D21A9D40D4409F4025439E4200DD78
S1134720DBE09E1B731C1F2B00DD0AE120223800F6
S1134730D21A290097402C009140D8407A1E974104
S1134740DC40002601430F437B0709D00F233B4085
S1134750042B05D03B1DBB42BF417F42E4191F001F
S1134760230225D5864B01369E4200D1AFE0854B0E
S113477001251C4043466207FF086402760517437F
S1134780240B760D1D4000212403230B0C0D7E4ABF
S113479024051C431440330523435B00ED075B08E9
S11347A02B43380019001CBC90469946A246F0BD24
S11347B0012543466207FF081743E4081D40704B78
S11347C09E4236D024037605240B760DDBE7634640
S11347D0F31A002B00DC94E06046002835D06848CA
S11347E08642B1D080273F043943382B00DCFDE0FA
S11347F00A43170000217A1E9741574457458041C8
S1134800091944420C1923023AD55D4B01369E42E4
S113481000D14BE101225B4B1C407B0817401F4336
S1134820E207174364088FE70800104300D024E729
S113483021E723003B4300D1B9E180221203144352
S11348402403240B9FE72E007EE70800104300D1C9
S1134850CAE0581E8446002800D0E7E0524452457E
S1134860804164184042241817000126230207D50A
S11348700226CFE764462C4300D1B3E12C006746FF
S11348807B0700D062E76307FF081F430125434607
S1134890E4081D4093E7002D78D1751C6D056D0D5E
S11348A0012D00DCF2E05046801A8245BF41651AB2
S11348B07F42ED1B8446280200D48CE05046171A30
S11348C0BA4292410C1B5542651B984614E70125D8
S11348D0434600241D40002755E72A4CF61A2C4075
S11348E032E73D0028388540002717E7380000F0FC
S11348F031FA203006E70A43170000217A1E974157
S1134900EEE6002B00D0E5E0731C9C465B055B0DD6
S1134910012B00DC9FE01A4B9C4500D1C5E05244BA
S113492052458041641840422418E707520817434F
S11349306408664608E71248854200D185E01D00F8
S1134940BCE629001F3EF140202B00D17FE040222D
S1134950D31A9D402F437D1EAF4100240F430026F0
S11349608EE72B000F00203BDF40202D71D0402329
S11349705D1BA9400A43511E8A4100211743AFE63B
S1134980FF070000FFFF7FFFFFFF0F80002E3ED0D8
S1134990B34EB44545D0802636046D423443382D99
S11349A000DDA8E01F2D00DD1FE120262700504672
S11349B0761BB740E84007435046B040461EB0411E
S11349C0EC403843171ABA4292410C1B5242A41AC3
S11349D0664698468BE6644667462C4300D08BE6D1
S11349E0002500260027EAE61E00ADE61F2B60DC4A
S11349F02027F81A0F00844687401000D840074348
S1134A0060468240501E8241D9401743F5E6260095
S1134A105046064305D0ED43002DD3D0904EB44507
S1134A20BDD10C001700664698468DE68C4883423B
S1134A300BD06346D9E6002D00D096E00800104361
S1134A4000D1E2E00C0017009846854E7CE6002574
S1134A5080E700218EE7230050460343002E00D058
S1134A60A8E0002B00D1DEE00B00134300D16BE67D
S1134A7052445245804164184042241817002302CE
S1134A8000D4FDE6774B66461C405DE625005046A3
S1134A900543002ECFD1002D4FD10C00144300D17B
S1134AA0A0E00C00170098464EE666460024002756
S1134AB085E61F000800203FF8400700202B00D1A6
S1134AC08EE04020C31A99400A43511E8A410021B6
S1134AD0174392E6002E14D126005046064362D0B6
S1134AE0DB43002B5CD187189742924164185242F1
S1134AF0A418664687E650462043441EA04100247D
S1134B0060E7574EB4454ED0802636045B423443AA
S1134B10382B00DD7FE01F2B00DD8BE020262700F3
S1134B205046F61AB740D84007435046B040461E98
S1134B30B0410743DC40BF18D6E70D00154300D150
S1134B4002E65046801A8245BF41651A7F42ED1B3A
S1134B508446280200D48DE65046171ABA42924180
S1134B600C1B5242A41A9846EEE50D00154300D1E1
S1134B706BE750466707C00807438020E40800033A
S1134B80044207D0CD08054204D12C009846D7082A
S1134B9049070F437B0FE4001C43FF00304ED3E56D
S1134BA02F4EB445B4D10C0017006646CCE500275F
S1134BB00024E8E5002B39D00B00134300D144E76F
S1134BC0C008670707438020E40800030442E1D0DB
S1134BD0CB080342DED1D70849070F431C00D9E7AD
S1134BE0002171E700250027E9E52E002700203E7B
S1134BF0F740202D2FD04026751BAC405046204353
S1134C00441EA04100243843DCE68024002524030C
S1134C10134E0027D3E5504620430700781E8741F2
S1134C200024BF1860E70C0017008DE50C00170086
S1134C300B4E89E51E002700203EF740202B0CD0A8
S1134C404026F31A9C4050462043441EA04107438B
S1134C500024BF1848E70024D0E70024F3E7C04647
S1134C60FF070000FFFF7FFF30B5134D0A034B0021
S1134C70120B5B0DC90F0024AB4210DD0F4CA34295
S1134C800FDC80240E4D64032243ED1A1F2D0BDD2F
S1134C900C48C31ADA405442002900D11400200001
S1134CA030BD094BCC18FAE7084CE840A4466344ED
S1134CB09A400243EFE7C046FE0300001D040000D3
S1134CC03304000013040000FFFFFF7FEDFBFFFF30
S1134CD070B5002830D0C317C4185C40C50F20003D
S1134CE000F038F8174B184A1B1AD21A1F2A18DD7D
S1134CF0164AD21A9440002224035B05240B5B0D50
S1134D000021100024030A0D240B12052243104C29
S1134D101B05224013435B00ED075B082B4319007E
S1134D2070BD210091400A000B21081AC4405B05A4
S1134D302403240B5B0DE3E7002500230024002259
S1134D40DEE7C0461E040000330400001304000024
S1134D50FFFF0F801C2101231B04984201D3000C88
S1134D6010391B0A984201D3000A08391B099842DA
S1134D7001D30009043902A2105C40187047C046F0
S1134D800403020201010101000000000000000010
S1134D9070B500260C4D0D4C641BA410A64209D11D
S1134DA0002601F095F90A4D0A4C641BA410A64292
S1134DB005D170BDB300EB5898470136EEE7B30058
S1134DC0EB5898470136F2E7DC600000DC60000035
S1134DD0DC600000E0600000002310B59A4200D1BE
S1134DE010BDCC5CC4540133F8E70300821893422D
S1134DF000D1704719700133F9E74A424A418023D0
S1134E0010B55200DB0000F001F810BDF0B51D0034
S1134E104F4B85B01E6804000F000092002E05D091
S1134E20B369002B02D1300000F0B6F9494B9C4223
S1134E3050D17468009B022B05D0012B00D984E06B
S1134E40002D00DA81E02100300000F037F9616BB9
S1134E50002908D023004433994202D0300000F0E6
S1134E6063FA002363630023A3616360A3891B06C1
S1134E7003D52169300000F057FAA389364A13405C
S1134E80A381009B022B5AD003AB02AA210030005D
S1134E9000F018FAA3891843A081002D24D1029DA3
S1134EA0280000F037FA0195071E42D1029B0193B6
S1134EB0AB4239D1012040420223A2891343A3818A
S1134EC00023A3602300473323602361012363612C
S1134ED005B0F0BD214B9C4201D1B468AAE7204B38
S1134EE09C42A7D1F468A5E7002FD9D0B369002B61
S1134EF002D1300000F050F9009B012B03D1A389AB
S1134F00009A1A43A2810820A3892760276165615A
S1134F10184018D0012018400023984211D06D4247
S1134F20A360A5611800D3E7019800F0F3F9071E08
S1134F30C0D08023A289019D1343A381D6E700201A
S1134F40BAE7A560C4E7A060C2E701204042BFE71A
S1134F50240000205C6000005CF3FFFF7C60000024
S1134F603C6000000EB410B59DB002A90290086127
S1134F700B48822488604861012040421FABC881ED
S1134F80084804CBA400006801938C8100F0D6FA91
S1134F900023029A13701DB010BC08BC03B018475C
S1134FA0FFFFFF7F24000020F7B58A8905000C006D
S1134FB0130760D44B68002B04DC0B6C002B01DC62
S1134FC00020FEBDE76A002FFAD000232E682B6074
S1134FD080235B011A4034D0606DA3895B0706D53A
S1134FE06368C01A636B002B01D0236CC01A0200E3
S1134FF0216A00232800E76AB847A189431C06D127
S11350002B681D2B31D82C4ADA40D3072DD5002329
S1135010636023692360CB0405D5431C02D12B684C
S1135020002B00D16065616B2E600029C8D023007D
S11350304433994202D0280000F076F900206063DE
S1135040BFE70123216A2800B847431CC5D12B6858
S1135050002BC2D01D2B01D0162B01D12E60AFE73F
S11350604023A2891343A381ABE740230B430120D0
S1135070A3814042A5E70F69002FA1D00B680F6000
S1135080DB1B01930023920700D14B69A360019BB2
S1135090002B00DC94E7019B3A00216A2800A66AF1
S11350A0B047002803DC4023A2891343DFE7019BB8
S11350B03F181B1A0193EAE7010040200B6970B501
S11350C005000C00002B01D1002070BD002804D085
S11350D08369002B01D100F05FF80B4B9C4209D18E
S11350E06C680C22A35E002BEED021002800FFF791
S11350F05BFFEAE7054B9C4201D1AC68F1E7044B46
S11351009C42EED1EC68ECE75C6000007C6000003F
S11351103C60000010B5024900F0B2F810BDC04672
S1135120BD500000002310B5040003604360836099
S113513081814366C281036143618361190008224E
S11351405C30FFF752FE054B24626362044BA3629A
S1135150044BE362044B236310BDC046795A00003C
S1135160A15A0000D95A0000055B000070B56825FB
S11351704A1E55430E002900743100F01FF9041E25
S113518008D000212A00016046600C30A06068321B
S1135190FFF72BFE200070BD836913B50400002BBC
S11351A028D18364C3640365134B144A1B68826269
S11351B00193984201D101238361200000F020F87B
S11351C06060200000F01CF8A060200000F018F8D7
S11351D00022E06004216068FFF7A4FF0122092196
S11351E0A068FFF79FFF02221221E068FFF79AFFF1
S11351F00123A36113BDC0463860000015510000AF
S1135200F8B51E4B07001E68B369002B02D13000AD
S1135210FFF7C2FF4836B4687368013B04D53368AE
S1135220002B07D03668F6E70C22A55E002D0DD0C2
S11352306834F2E704213800FFF798FF3060002853
S1135240F0D10C2304003B602000F8BD01232000B2
S11352505B42E3810233A38165662560A5606560D6
S113526025616561A561082229005C30FFF7BDFD59
S11352706563A563A564E564E6E7C046386000009D
S1135280F7B504000700002601914834002C01D131
S11352903000FEBD6368A5680093009B013B00934A
S11352A001D52468F2E7AB89012B08D90E22AB5E45
S11352B0013304D029003800019B98470643683520
S11352C0EBE7000070B50E001D000E23C95E90B020
S11352D01400002907DA00232B60B3891B0611D4BC
S11352E08023DB000FE001AA00F038FC0028F2DB89
S11352F0F022029B12021340054A9B185A42534162
S11353002B60EDE740230020236010B070BDC04641
S113531000E0FFFF10B5034B0100186800F04EF8E1
S113532010BDC0462400002070B50500002910D02F
S11353300C1F2368002B00DAE418280000F051FC4D
S11353401D4A1368002B05D163601460280000F027
S113535049FC70BDA34209D9216860188342F3D186
S113536018685B6841182160EEE713005A68002A48
S113537001D0A242F9D919685818A0420BD120686B
S11353800918581819608242E0D11068526841180F
S113539019605A60DAE7A04202D90C232B60D5E7E2
S11353A021686018824203D1106852684118216054
S11353B062605C60CAE7C04690010020032370B5B8
S11353C0CD1C9D43083506000C2D1ED20C25A94288
S11353D01DD8300000F005FC254A1468210000297E
S11353E019D1244C2368002B03D1300000F032FB88
S11353F020602900300000F02DFB431C2CD10C232D
S11354003000336000F0EEFB03E0002DDFDA0C2304
S11354103360002070BD0B685B1B1AD40B2B03D9BF
S11354200B60CC18256003E08C420ED163681360D6
S1135430300000F0D7FB200007220B30231D9043DF
S1135440C31AE7D05A42E250E4E74B6863600C00A9
S1135450EEE70C004968C2E70323C41C9C43A04246
S1135460E0D0211A300000F0F5FA431CDAD1C6E787
S11354709001002094010020F0B58E6885B00700EB
S11354800C00039201939E4239D890238A89DB0051
S11354901A4234D00325096923685B1A02936369AD
S11354A002985D43EB0F5D19019B6D1001331B18CE
S11354B0AB4200D91D00530532D529003800FFF74F
S11354C07DFF061E09D10C233B6040230120A289E5
S11354D040421343A38105B0F0BD029A2169FFF74E
S11354E07BFCA389144A1A4080231343A381029BA3
S11354F02661F61826606561019EED1AA560019B80
S1135500B34200D21E0032000399206800F057FB1A
S1135510A36800209B1BA36023689E192660DAE71A
S11355202A00380000F05FFB061EE0D12169380034
S1135530FFF7FAFEC7E7C0467FFBFFFFF0B59FB059
S1135540029005938B890F0016001B0611D50B6979
S1135550002B0ED14021FFF731FF3860386100285D
S113556005D10C23029A013813601FB0F0BD40230B
S11355707B61002306AD6B6120336B761033AB7611
S113558034002378002B47D1A31B04930DD0A31B15
S1135590320039000298FFF76FFF431C00D1B5E0D9
S11355A06A69049B944663446B612378002B00D1A1
S11355B0ACE00122002352426A6002A9543252181C
S11355C001342B60EB60AB601370AB65584E052261
S11355D02178300000F0E8FA621C002820D1296804
S11355E0CB0604D5532302AE20309B1918700B0749
S11355F004D553232B2002AE9B19187023782A2B31
S113560016D000200A21099B2278303A092A55D95C
S1135610002815D0099313E0252BB5D00134B0E749
S11356200123801B8340296814000B432B60CDE7C2
S1135630059B181D1B680590002B39DB099314008A
S113564023782E2B0BD16378621C2A2B3ED1059B29
S113565002341A1D1B680592002B34DB0793354E68
S113566021780322300000F09FFA002806D040235E
S1135670801B83402A68013413432B60217806225F
S11356802D48661C297600F08FFA002846D02B4B53
S1135690002B2FD12968059B0722C90528D59B1803
S11356A09343083305936B69039A9B186B6167E70F
S11356B05B42EB6002230B432B60C0E74B43013496
S11356C09B180120A0E701235B42C7E700231400D5
S11356D00A201A006B6021783039092903D9002B7C
S11356E0BDD00792BBE74243013452180123F2E7CD
S11356F00733D5E705AB00933A00114B2900029814
S113570000E000BF0390039B0133CCD1BB890B980D
S11357105B0600D429E70120404226E705AB00934D
S11357203A00074B2900029800F07AF8EAE7C046ED
S11357309C600000A2600000A66000000000000061
S113574079540000F7B5150001938A680B6900903D
S11357500C00934200DA130022002B6043321278CB
S1135760002A01D001332B6023689B0602D52B68E5
S113577002332B60062723681F4027D023004333BE
S11357801B785A1E93412268920630D42200019954
S113579043320098089EB047431C25D00623206856
S11357A02A68E16803400025042B03D18D1AEB43DA
S11357B0DB171D40A3682269934201DD9B1AED1893
S11357C00027BD4220D1002010E00137E3682A6899
S11357D09B1A9F42D2DA22000123193201990098C0
S11357E0089EB047431CF0D101204042FEBD30204A
S11357F0E1184331087021005A1C45310978A21878
S1135800433202331170C1E7220001231A32019995
S11358100098089EB047431CE6D00137D1E700004A
S1135820F0B58BB006920A004332079305900492B8
S11358300A7E0C00109B6E2A00D18FE017D8632AD1
S11358402CD008D8002A00D199E0582A54D0260038
S11358504236327029E0642A01D0692AF7D12168DE
S11358601A68080623D5111D1960156825E0732AE6
S113587000D188E008D86F2A29D0702AE7D12022E5
S113588009680A43226003E0752A20D0782ADED111
S113589022007821453211706C4A30E00E001A68FB
S11358A04236111D196013683370012379E04906EB
S11358B0D9D5111D19600023D55E002D03DA2D23DF
S11358C0049A6D421370624B0A2703932FE02068F9
S11358D01968050603D5081D18600D6805E0400623
S11358E0F9D50D68081D1860ADB2594B082703930C
S11358F06F2A18D00A2716E045310A70544A0392D9
S11359001A682168101D18601568080622D5CB078F
S113591002D52023194321601027002D03D1202311
S113592022689A4322602300002243331A7063687A
S1135930A360002B5CDB0422216891432160002DCD
S113594058D1049E002B64D02600039B42361B785A
S113595033705EE04806DAD5ADB2D8E709681A6854
S1135960080605D5111D1960136862691A6006E0FE
S11359704906F7D5111D19601368A28A1A800023FD
S1135980049E236154E01A68111D196016680021F1
S11359906268300000F008F9002801D0801B6060C4
S11359A0636823610023049A137041E02369320081
S11359B006990598079DA847431C43D023680025F2
S11359C09B070FD4099BE06898423DDA18003BE03E
S11359D022000123193206990598079EB047431CFB
S11359E030D00135E368099A9B1A9D42F0DBE9E760
S11359F0002DA9D0049E28003900FCF7C7F8039BAA
S1135A00013E5B5C280033703900FCF7A3F8051EE7
S1135A10F1D1082F09D12368DB0706D56368226911
S1135A20934202DC3023013E3370049B9B1B2361B1
S1135A30079B09AA00932100069B0598FFF782FEA5
S1135A40431CB3D1012040420BB0F0BDBE60000046
S1135A50AD600000002370B5064C0500080023600B
S1135A60FBF7D0FD431C03D12368002B00D02B602F
S1135A7070BDC0466806002070B50C000E25495F55
S1135A8000F0D8F8002803DB636D1B18636570BD54
S1135A90A389024A1340A381F9E7C046FFEFFFFF41
S1135AA0F8B51F008B8905000C001600DB0505D531
S1135AB00E23C95E0022022300F062F8A389054A7E
S1135AC028001340A38132000E23E15E3B0000F066
S1135AD01FF8F8BDFFEFFFFF70B50C000E25495FFE
S1135AE000F04EF8A389421C03D1054A1340A38158
S1135AF070BD802252011343A3816065F8E7C0465C
S1135B00FFEFFFFF10B50E23C95E00F015F810BDBE
S1135B1070B50500080011000022064C22601A002E
S1135B20FDF7D2FB431C03D12368002B00D02B606C
S1135B3070BDC04668060020002370B5064C050001
S1135B4008002360FBF770FD431C03D12368002B7E
S1135B5000D02B6070BDC04668060020002370B5DD
S1135B60064C0500080011002360FBF760FD431C90
S1135B7003D12368002B00D02B6070BD6806002081
S1135B8070B50500080011000022064C22601A00BE
S1135B90FBF752FD431C03D12368002B00D02B607C
S1135BA070BDC04668060020C9B28218904201D177
S1135BB00020704703788B42FBD00130F6E710B524
S1135BC0884202D98B18984208D300239A4207D0FE
S1135BD0CC5CC4540133F9E78B5C8354013AFBD2A7
S1135BE010BD70477047F8B507000D001600002976
S1135BF005D11100FFF7E2FB04002000F8BD002AE4
S1135C0003D1FFF791FB3400F7E700F027F82C00ED
S1135C108642F2D931003800FFF7D0FB041EECD0E5
S1135C2029003200FFF7D8F829003800FFF77CFB81
S1135C30E3E7000070B50500080011000022064CDF
S1135C4022601A00FDF72CFB431C03D12368002BB0
S1135C5000D02B6070BDC046680600200B1F1B6877
S1135C60181F002B01DA0B58C01870472E2E2F680E
S1135C70616C2F7372632F68616C5F63616E5F6127
S1135C8073796E632E6300002E2E2F68616C2F7360
S1135C9072632F68616C5F696F2E63002E2E2F680C
S1135CA0616C2F7372632F68616C5F7370695F6DD1
S1135CB05F73796E632E63002E2E2F68616C2F73D1
S1135CC072632F68616C5F74696D65722E63000086
S1135CD02E2E2F68616C2F7372632F68616C5F7551
S1135CE0736172745F73796E632E63002E2E2F6856
